{
  "_format": "hh-sol-artifact-1",
  "contractName": "FlareCredVerifier",
  "sourceName": "contracts/FlareCredVerifier.sol",
  "abi": [
    {
      "inputs": [],
      "stateMutability": "nonpayable",
      "type": "constructor"
    },
    {
      "inputs": [],
      "name": "verifier",
      "outputs": [
        {
          "internalType": "contract IFdcVerification",
          "name": "",
          "type": "address"
        }
      ],
      "stateMutability": "view",
      "type": "function"
    },
    {
      "inputs": [
        {
          "components": [
            {
              "internalType": "bytes32[]",
              "name": "merkleProof",
              "type": "bytes32[]"
            },
            {
              "components": [
                {
                  "internalType": "bytes32",
                  "name": "attestationType",
                  "type": "bytes32"
                },
                {
                  "internalType": "bytes32",
                  "name": "sourceId",
                  "type": "bytes32"
                },
                {
                  "internalType": "uint64",
                  "name": "votingRound",
                  "type": "uint64"
                },
                {
                  "internalType": "uint64",
                  "name": "lowestUsedTimestamp",
                  "type": "uint64"
                },
                {
                  "components": [
                    {
                      "internalType": "string",
                      "name": "addressStr",
                      "type": "string"
                    }
                  ],
                  "internalType": "struct IAddressValidity.RequestBody",
                  "name": "requestBody",
                  "type": "tuple"
                },
                {
                  "components": [
                    {
                      "internalType": "bool",
                      "name": "isValid",
                      "type": "bool"
                    },
                    {
                      "internalType": "string",
                      "name": "standardAddress",
                      "type": "string"
                    },
                    {
                      "internalType": "bytes32",
                      "name": "standardAddressHash",
                      "type": "bytes32"
                    }
                  ],
                  "internalType": "struct IAddressValidity.ResponseBody",
                  "name": "responseBody",
                  "type": "tuple"
                }
              ],
              "internalType": "struct IAddressValidity.Response",
              "name": "data",
              "type": "tuple"
            }
          ],
          "internalType": "struct IAddressValidity.Proof",
          "name": "proof",
          "type": "tuple"
        }
      ],
      "name": "verifyAddress",
      "outputs": [
        {
          "internalType": "bool",
          "name": "success",
          "type": "bool"
        }
      ],
      "stateMutability": "view",
      "type": "function"
    },
    {
      "inputs": [
        {
          "components": [
            {
              "internalType": "bytes32[]",
              "name": "merkleProof",
              "type": "bytes32[]"
            },
            {
              "components": [
                {
                  "internalType": "bytes32",
                  "name": "attestationType",
                  "type": "bytes32"
                },
                {
                  "internalType": "bytes32",
                  "name": "sourceId",
                  "type": "bytes32"
                },
                {
                  "internalType": "uint64",
                  "name": "votingRound",
                  "type": "uint64"
                },
                {
                  "internalType": "uint64",
                  "name": "lowestUsedTimestamp",
                  "type": "uint64"
                },
                {
                  "components": [
                    {
                      "internalType": "bytes32",
                      "name": "transactionHash",
                      "type": "bytes32"
                    },
                    {
                      "internalType": "uint16",
                      "name": "requiredConfirmations",
                      "type": "uint16"
                    },
                    {
                      "internalType": "bool",
                      "name": "provideInput",
                      "type": "bool"
                    },
                    {
                      "internalType": "bool",
                      "name": "listEvents",
                      "type": "bool"
                    },
                    {
                      "internalType": "uint32[]",
                      "name": "logIndices",
                      "type": "uint32[]"
                    }
                  ],
                  "internalType": "struct IEVMTransaction.RequestBody",
                  "name": "requestBody",
                  "type": "tuple"
                },
                {
                  "components": [
                    {
                      "internalType": "uint64",
                      "name": "blockNumber",
                      "type": "uint64"
                    },
                    {
                      "internalType": "uint64",
                      "name": "timestamp",
                      "type": "uint64"
                    },
                    {
                      "internalType": "address",
                      "name": "sourceAddress",
                      "type": "address"
                    },
                    {
                      "internalType": "bool",
                      "name": "isDeployment",
                      "type": "bool"
                    },
                    {
                      "internalType": "address",
                      "name": "receivingAddress",
                      "type": "address"
                    },
                    {
                      "internalType": "uint256",
                      "name": "value",
                      "type": "uint256"
                    },
                    {
                      "internalType": "bytes",
                      "name": "input",
                      "type": "bytes"
                    },
                    {
                      "internalType": "uint8",
                      "name": "status",
                      "type": "uint8"
                    },
                    {
                      "components": [
                        {
                          "internalType": "uint32",
                          "name": "logIndex",
                          "type": "uint32"
                        },
                        {
                          "internalType": "address",
                          "name": "emitterAddress",
                          "type": "address"
                        },
                        {
                          "internalType": "bytes32[]",
                          "name": "topics",
                          "type": "bytes32[]"
                        },
                        {
                          "internalType": "bytes",
                          "name": "data",
                          "type": "bytes"
                        },
                        {
                          "internalType": "bool",
                          "name": "removed",
                          "type": "bool"
                        }
                      ],
                      "internalType": "struct IEVMTransaction.Event[]",
                      "name": "events",
                      "type": "tuple[]"
                    }
                  ],
                  "internalType": "struct IEVMTransaction.ResponseBody",
                  "name": "responseBody",
                  "type": "tuple"
                }
              ],
              "internalType": "struct IEVMTransaction.Response",
              "name": "data",
              "type": "tuple"
            }
          ],
          "internalType": "struct IEVMTransaction.Proof",
          "name": "proof",
          "type": "tuple"
        }
      ],
      "name": "verifyEVM",
      "outputs": [
        {
          "internalType": "bool",
          "name": "success",
          "type": "bool"
        }
      ],
      "stateMutability": "view",
      "type": "function"
    },
    {
      "inputs": [
        {
          "components": [
            {
              "internalType": "bytes32[]",
              "name": "merkleProof",
              "type": "bytes32[]"
            },
            {
              "components": [
                {
                  "internalType": "bytes32",
                  "name": "attestationType",
                  "type": "bytes32"
                },
                {
                  "internalType": "bytes32",
                  "name": "sourceId",
                  "type": "bytes32"
                },
                {
                  "internalType": "uint64",
                  "name": "votingRound",
                  "type": "uint64"
                },
                {
                  "internalType": "uint64",
                  "name": "lowestUsedTimestamp",
                  "type": "uint64"
                },
                {
                  "components": [
                    {
                      "internalType": "string",
                      "name": "url",
                      "type": "string"
                    },
                    {
                      "internalType": "string",
                      "name": "postprocessJq",
                      "type": "string"
                    },
                    {
                      "internalType": "string",
                      "name": "abi_signature",
                      "type": "string"
                    }
                  ],
                  "internalType": "struct IJsonApi.RequestBody",
                  "name": "requestBody",
                  "type": "tuple"
                },
                {
                  "components": [
                    {
                      "internalType": "bytes",
                      "name": "abi_encoded_data",
                      "type": "bytes"
                    }
                  ],
                  "internalType": "struct IJsonApi.ResponseBody",
                  "name": "responseBody",
                  "type": "tuple"
                }
              ],
              "internalType": "struct IJsonApi.Response",
              "name": "data",
              "type": "tuple"
            }
          ],
          "internalType": "struct IJsonApi.Proof",
          "name": "proof",
          "type": "tuple"
        }
      ],
      "name": "verifyJson",
      "outputs": [
        {
          "internalType": "bool",
          "name": "success",
          "type": "bool"
        }
      ],
      "stateMutability": "view",
      "type": "function"
    },
    {
      "inputs": [
        {
          "components": [
            {
              "internalType": "bytes32[]",
              "name": "merkleProof",
              "type": "bytes32[]"
            },
            {
              "components": [
                {
                  "internalType": "bytes32",
                  "name": "attestationType",
                  "type": "bytes32"
                },
                {
                  "internalType": "bytes32",
                  "name": "sourceId",
                  "type": "bytes32"
                },
                {
                  "internalType": "uint64",
                  "name": "votingRound",
                  "type": "uint64"
                },
                {
                  "internalType": "uint64",
                  "name": "lowestUsedTimestamp",
                  "type": "uint64"
                },
                {
                  "components": [
                    {
                      "internalType": "bytes32",
                      "name": "transactionId",
                      "type": "bytes32"
                    },
                    {
                      "internalType": "uint256",
                      "name": "inUtxo",
                      "type": "uint256"
                    },
                    {
                      "internalType": "uint256",
                      "name": "utxo",
                      "type": "uint256"
                    }
                  ],
                  "internalType": "struct IPayment.RequestBody",
                  "name": "requestBody",
                  "type": "tuple"
                },
                {
                  "components": [
                    {
                      "internalType": "uint64",
                      "name": "blockNumber",
                      "type": "uint64"
                    },
                    {
                      "internalType": "uint64",
                      "name": "blockTimestamp",
                      "type": "uint64"
                    },
                    {
                      "internalType": "bytes32",
                      "name": "sourceAddressHash",
                      "type": "bytes32"
                    },
                    {
                      "internalType": "bytes32",
                      "name": "sourceAddressesRoot",
                      "type": "bytes32"
                    },
                    {
                      "internalType": "bytes32",
                      "name": "receivingAddressHash",
                      "type": "bytes32"
                    },
                    {
                      "internalType": "bytes32",
                      "name": "intendedReceivingAddressHash",
                      "type": "bytes32"
                    },
                    {
                      "internalType": "int256",
                      "name": "spentAmount",
                      "type": "int256"
                    },
                    {
                      "internalType": "int256",
                      "name": "intendedSpentAmount",
                      "type": "int256"
                    },
                    {
                      "internalType": "int256",
                      "name": "receivedAmount",
                      "type": "int256"
                    },
                    {
                      "internalType": "int256",
                      "name": "intendedReceivedAmount",
                      "type": "int256"
                    },
                    {
                      "internalType": "bytes32",
                      "name": "standardPaymentReference",
                      "type": "bytes32"
                    },
                    {
                      "internalType": "bool",
                      "name": "oneToOne",
                      "type": "bool"
                    },
                    {
                      "internalType": "uint8",
                      "name": "status",
                      "type": "uint8"
                    }
                  ],
                  "internalType": "struct IPayment.ResponseBody",
                  "name": "responseBody",
                  "type": "tuple"
                }
              ],
              "internalType": "struct IPayment.Response",
              "name": "data",
              "type": "tuple"
            }
          ],
          "internalType": "struct IPayment.Proof",
          "name": "proof",
          "type": "tuple"
        }
      ],
      "name": "verifyPayment",
      "outputs": [
        {
          "internalType": "bool",
          "name": "success",
          "type": "bool"
        }
      ],
      "stateMutability": "view",
      "type": "function"
    }
  ],
  "bytecode": "0x60a060405234801561001057600080fd5b5061001961002a565b6001600160a01b031660805261012c565b600073ad67fe66660fb8dfe9d6b1b4240d8650e30f60196001600160a01b031663159354a2604051602001610082906020808252600f908201526e233231ab32b934b334b1b0ba34b7b760891b604082015260600190565b604051602081830303815290604052805190602001206040518263ffffffff1660e01b81526004016100b691815260200190565b602060405180830381865afa1580156100d3573d6000803e3d6000fd5b505050506040513d601f19601f820116820180604052508101906100f791906100fc565b905090565b60006020828403121561010e57600080fd5b81516001600160a01b038116811461012557600080fd5b9392505050565b608051610c7a61015b60003960008181606101528181610197015281816101e601526102350152610c7a6000f3fe608060405234801561001057600080fd5b50600436106100575760003560e01c80632b7ac3f31461005c5780634345f252146100a05780638a6d12d6146100c3578063a2c390b1146100d6578063a7a37975146100e9575b600080fd5b6100837f000000000000000000000000000000000000000000000000000000000000000081565b6040516001600160a01b0390911681526020015b60405180910390f35b6100b36100ae366004610282565b6100fc565b6040519015158152602001610097565b6100b36100d1366004610282565b61017d565b6100b36100e4366004610282565b6101cc565b6100b36100f73660046102bf565b61021b565b60405163d0f18f8560e01b815260009073206d83e3a24523de1e43ab56ac8f7b9b10f6ab899063d0f18f8590610136908590600401610482565b602060405180830381865afa158015610153573d6000803e3d6000fd5b505050506040513d601f19601f8201168201806040525081019061017791906105c8565b92915050565b60405163f34ef58760e01b81526000906001600160a01b037f0000000000000000000000000000000000000000000000000000000000000000169063f34ef5879061013690859060040161063a565b6040516358fbe9e160e01b81526000906001600160a01b037f000000000000000000000000000000000000000000000000000000000000000016906358fbe9e190610136908590600401610990565b60405163a7a3797560e01b81526000906001600160a01b037f0000000000000000000000000000000000000000000000000000000000000000169063a7a3797590610136908590600401610ac2565b60006040828403121561027c57600080fd5b50919050565b60006020828403121561029457600080fd5b813567ffffffffffffffff8111156102ab57600080fd5b6102b78482850161026a565b949350505050565b6000602082840312156102d157600080fd5b813567ffffffffffffffff8111156102e857600080fd5b82016102a081850312156102fb57600080fd5b9392505050565b6000808335601e1984360301811261031957600080fd5b830160208101925035905067ffffffffffffffff81111561033957600080fd5b8060051b360382131561034b57600080fd5b9250929050565b81835260006001600160fb1b0383111561036b57600080fd5b8260051b80836020870137939093016020019392505050565b6000823560be1983360301811261039a57600080fd5b90910192915050565b803567ffffffffffffffff811681146103bb57600080fd5b919050565b60008235605e1983360301811261039a57600080fd5b6000808335601e198436030181126103ed57600080fd5b830160208101925035905067ffffffffffffffff81111561040d57600080fd5b80360382131561034b57600080fd5b81835281816020850137506000828201602090810191909152601f909101601f19169091010190565b60008235601e1983360301811261039a57600080fd5b600061046782836103d6565b6020855261047960208601828461041c565b95945050505050565b600060208083526104938485610302565b6040838601526104a7606086018284610352565b9150506104b682860186610384565b601f198583030160408601528035825282810135838301526104da604082016103a3565b67ffffffffffffffff8082166040850152806104f8606085016103a3565b166060850152505061050d60808201826103c0565b60c0608084015261051e81826103d6565b606060c08601526105346101208601828461041c565b915050610543858301836103d6565b955060bf19808684030160e087015261055d83888461041c565b965061056c60408501856103d6565b945092508086880301610100870152505061058885838361041c565b9450505061059960a0820182610445565b905081830360a08301526105ad838261045b565b9695505050505050565b80151581146105c557600080fd5b50565b6000602082840312156105da57600080fd5b81516102fb816105b7565b80356103bb816105b7565b600081356105fd816105b7565b1515835261060e60208301836103d6565b6060602086015261062360608601828461041c565b915050604083013560408501528091505092915050565b6000602080835261064b8485610302565b60408386015261065f606086018284610352565b91505061066e82860186610384565b601f19858303016040860152803582528281013583830152610692604082016103a3565b67ffffffffffffffff8082166040850152806106b0606085016103a3565b16606085015250506106c56080820182610445565b60c060808401526106d681826103d6565b91508460c08501526106ec60e08501838361041c565b945050506106fd60a08201826103c0565b905081830360a08301526105ad83826105f0565b60008235609e1983360301811261039a57600080fd5b803563ffffffff811681146103bb57600080fd5b8183526000602080850194508260005b858110156107745763ffffffff61076183610727565b168752958201959082019060010161074b565b509495945050505050565b6000823561011e1983360301811261039a57600080fd5b80356001600160a01b03811681146103bb57600080fd5b803560ff811681146103bb57600080fd5b60008383855260208086019550808560051b8301018460005b8781101561089357848303601f190189526107f28288610711565b60a063ffffffff61080283610727565b1685526001600160a01b03610818838801610796565b1686860152604061082b81840184610302565b838389015261083d8489018284610352565b93505050506060610850818401846103d6565b8784038389015261086284828461041c565b93505050506080808301359250610878836105b7565b911515949091019390935297830197908301906001016107d7565b5090979650505050505050565b60006101206108c0846108b2856103a3565b67ffffffffffffffff169052565b6108cc602084016103a3565b67ffffffffffffffff1660208501526108e760408401610796565b6001600160a01b03166040850152610901606084016105e5565b1515606085015261091460808401610796565b6001600160a01b0316608085015260a0838101359085015261093960c08401846103d6565b8260c087015261094c838701828461041c565b9250505061095c60e084016107ad565b60ff1660e085015261010061097384820185610302565b868403838801526109858482846107be565b979650505050505050565b600060208083526109a18485610302565b6040838601526109b5606086018284610352565b9150506109c482860186610384565b601f198583030160408601528035825282810135838301526109e8604082016103a3565b67ffffffffffffffff808216604085015280610a06606085016103a3565b1660608501525050610a1b6080820182610711565b60c06080840152803560c084015283810135935061ffff8416808514610a4057600080fd5b60e084015260408101359350610a55846105b7565b921515610100830152606083013592610a6d846105b7565b831515610120840152610a836080820182610302565b9450905060a0610140840152610a9e6101608401858361073b565b935050610aae60a082018261077f565b905081830360a08301526105ad83826108a0565b602081526000610ad28384610302565b6102a0806020860152610aea6102c086018385610352565b92506020860135604086015260408601356060860152610b0c606087016103a3565b915067ffffffffffffffff808316608087015280610b2c608089016103a3565b1660a08701525060a086013560c086015260c086013560e0860152610100915060e086013582860152610120610b698187016108b2858a016103a3565b610b748188016103a3565b925050610140610b8f8187018467ffffffffffffffff169052565b610160925080870135838701525061018082870135818701526101a092508087013583870152506101c082870135818701526101e092508087013583870152506102008287013581870152610220925080870135838701525061024082870135818701526102609250808701358387015250610c0c8287016105e5565b9150610280610c1e8187018415159052565b610c298188016107ad565b925050610c3a8186018360ff169052565b509094935050505056fea2646970667358221220ab10610c5b7c4b5d58b46e3bd60912d3781a9c3258ee838cc6c982f4574e19a364736f6c63430008190033",
  "linkReferences": {},
  "deployedLinkReferences": {}
}