{
  "_format": "hh-sol-artifact-1",
  "contractName": "FtsoHelper",
  "sourceName": "contracts/FtsoHelper.sol",
  "abi": [
    {
      "inputs": [],
      "name": "flrUsdPriceWei",
      "outputs": [
        {
          "internalType": "uint256",
          "name": "priceWei",
          "type": "uint256"
        },
        {
          "internalType": "uint256",
          "name": "timestamp",
          "type": "uint256"
        }
      ],
      "stateMutability": "view",
      "type": "function"
    }
  ],
  "bytecode": "0x6080604052348015600f57600080fd5b5061037e8061001f6000396000f3fe608060405234801561001057600080fd5b506004361061002b5760003560e01c8063810cc3f114610030575b600080fd5b610038610051565b6040805192835260208301919091520160405180910390f35b600080600061005e610188565b9050600061006a610251565b60408051633e2dea0960e21b815260016004820152602481019190915260076044820152661193148bd554d160ca1b60648201529091506000906001600160a01b0383169063f8b7a82490608401602060405180830381865afa1580156100d5573d6000803e3d6000fd5b505050506040513d601f19601f820116820180604052508101906100f991906102ad565b604051632cff56fb60e11b81526affffffffffffffffffffff19821660048201529091506001600160a01b038416906359feadf6906024016040805180830381865afa15801561014d573d6000803e3d6000fd5b505050506040513d601f19601f8201168201806040525081019061017191906102e2565b909667ffffffffffffffff90911695509350505050565b600073ad67fe66660fb8dfe9d6b1b4240d8650e30f60196001600160a01b031663159354a26040516020016101d790602080825260069082015265233a39b7ab1960d11b604082015260600190565b604051602081830303815290604052805190602001206040518263ffffffff1660e01b815260040161020b91815260200190565b602060405180830381865afa158015610228573d6000803e3d6000fd5b505050506040513d601f19601f8201168201806040525081019061024c919061031f565b905090565b600073ad67fe66660fb8dfe9d6b1b4240d8650e30f60196001600160a01b031663159354a26040516020016101d790602080825260139082015272233a39b7a332b2b224b221b7b73b32b93a32b960691b604082015260600190565b6000602082840312156102bf57600080fd5b81516affffffffffffffffffffff19811681146102db57600080fd5b9392505050565b600080604083850312156102f557600080fd5b82519150602083015167ffffffffffffffff8116811461031457600080fd5b809150509250929050565b60006020828403121561033157600080fd5b81516001600160a01b03811681146102db57600080fdfea264697066735822122027806207d0d031e7f6adbe979cab8c337b88584e9ae1309568a9040a1fb72a6364736f6c63430008190033",
  "linkReferences": {},
  "deployedLinkReferences": {}
}