{
  "_format": "hh-sol-artifact-1",
  "contractName": "RngHelper",
  "sourceName": "contracts/RngHelper.sol",
  "abi": [
    {
      "inputs": [],
      "name": "random",
      "outputs": [
        {
          "internalType": "uint256",
          "name": "rnd",
          "type": "uint256"
        },
        {
          "internalType": "bool",
          "name": "ready",
          "type": "bool"
        },
        {
          "internalType": "uint256",
          "name": "ts",
          "type": "uint256"
        }
      ],
      "stateMutability": "view",
      "type": "function"
    },
    {
      "inputs": [
        {
          "internalType": "uint256",
          "name": "modulus",
          "type": "uint256"
        }
      ],
      "name": "randomMod",
      "outputs": [
        {
          "internalType": "uint256",
          "name": "",
          "type": "uint256"
        }
      ],
      "stateMutability": "view",
      "type": "function"
    }
  ],
  "bytecode": "0x6080604052348015600f57600080fd5b506102dc8061001f6000396000f3fe608060405234801561001057600080fd5b50600436106100365760003560e01c80635ec01e4d1461003b578063a690061214610063575b600080fd5b610043610084565b604080519384529115156020840152908201526060015b60405180910390f35b610076610071366004610204565b610103565b60405190815260200161005a565b600080600080610092610133565b9050806001600160a01b031663dbdff2c16040518163ffffffff1660e01b8152600401606060405180830381865afa1580156100d2573d6000803e3d6000fd5b505050506040513d601f19601f820116820180604052508101906100f6919061021d565b9196909550909350915050565b60008061010e610084565b505090508260001461012957610124838261025b565b61012c565b60005b9392505050565b600073ad67fe66660fb8dfe9d6b1b4240d8650e30f60196001600160a01b031663159354a260405160200161018a906020808252600e908201526d2930b73237b6a73ab6b132b92b1960911b604082015260600190565b604051602081830303815290604052805190602001206040518263ffffffff1660e01b81526004016101be91815260200190565b602060405180830381865afa1580156101db573d6000803e3d6000fd5b505050506040513d601f19601f820116820180604052508101906101ff919061027d565b905090565b60006020828403121561021657600080fd5b5035919050565b60008060006060848603121561023257600080fd5b835192506020840151801515811461024957600080fd5b80925050604084015190509250925092565b60008261027857634e487b7160e01b600052601260045260246000fd5b500690565b60006020828403121561028f57600080fd5b81516001600160a01b038116811461012c57600080fdfea2646970667358221220fb60203388f56b6eb6a6c6d079724b771877b1cc53c84063c38787308b8050ab64736f6c63430008190033",
  "linkReferences": {},
  "deployedLinkReferences": {}
}